{"abi":[{"type":"constructor","inputs":[],"stateMutability":"nonpayable"},{"type":"function","name":"admin","inputs":[],"outputs":[{"name":"","type":"address","internalType":"address"}],"stateMutability":"view"},{"type":"function","name":"batchIssueCredentials","inputs":[{"name":"credentialIds","type":"string[]","internalType":"string[]"},{"name":"credentialHashes","type":"bytes32[]","internalType":"bytes32[]"},{"name":"holders","type":"address[]","internalType":"address[]"},{"name":"expiresAts","type":"uint256[]","internalType":"uint256[]"}],"outputs":[],"stateMutability":"nonpayable"},{"type":"function","name":"credentials","inputs":[{"name":"","type":"string","internalType":"string"}],"outputs":[{"name":"credentialHash","type":"bytes32","internalType":"bytes32"},{"name":"issuer","type":"address","internalType":"address"},{"name":"holder","type":"address","internalType":"address"},{"name":"issuedAt","type":"uint256","internalType":"uint256"},{"name":"expiresAt","type":"uint256","internalType":"uint256"},{"name":"revoked","type":"bool","internalType":"bool"},{"name":"revokedAt","type":"uint256","internalType":"uint256"},{"name":"verificationCount","type":"uint256","internalType":"uint256"}],"stateMutability":"view"},{"type":"function","name":"getCredentialRecord","inputs":[{"name":"credentialId","type":"string","internalType":"string"}],"outputs":[{"name":"","type":"tuple","internalType":"struct UniversalSkillPassport.CredentialRecord","components":[{"name":"credentialHash","type":"bytes32","internalType":"bytes32"},{"name":"issuer","type":"address","internalType":"address"},{"name":"holder","type":"address","internalType":"address"},{"name":"issuedAt","type":"uint256","internalType":"uint256"},{"name":"expiresAt","type":"uint256","internalType":"uint256"},{"name":"revoked","type":"bool","internalType":"bool"},{"name":"revokedAt","type":"uint256","internalType":"uint256"},{"name":"verificationCount","type":"uint256","internalType":"uint256"}]}],"stateMutability":"view"},{"type":"function","name":"getHolderCredentialCount","inputs":[{"name":"holder","type":"address","internalType":"address"}],"outputs":[{"name":"","type":"uint256","internalType":"uint256"}],"stateMutability":"view"},{"type":"function","name":"getHolderCredentials","inputs":[{"name":"holder","type":"address","internalType":"address"}],"outputs":[{"name":"","type":"string[]","internalType":"string[]"}],"stateMutability":"view"},{"type":"function","name":"getIssuerCredentialCount","inputs":[{"name":"issuer","type":"address","internalType":"address"}],"outputs":[{"name":"","type":"uint256","internalType":"uint256"}],"stateMutability":"view"},{"type":"function","name":"getIssuerCredentials","inputs":[{"name":"issuer","type":"address","internalType":"address"}],"outputs":[{"name":"","type":"string[]","internalType":"string[]"}],"stateMutability":"view"},{"type":"function","name":"getIssuerInfo","inputs":[{"name":"issuer","type":"address","internalType":"address"}],"outputs":[{"name":"","type":"tuple","internalType":"struct UniversalSkillPassport.IssuerInfo","components":[{"name":"name","type":"string","internalType":"string"},{"name":"registered","type":"bool","internalType":"bool"},{"name":"registeredAt","type":"uint256","internalType":"uint256"},{"name":"totalIssued","type":"uint256","internalType":"uint256"},{"name":"totalRevoked","type":"uint256","internalType":"uint256"}]}],"stateMutability":"view"},{"type":"function","name":"isCredentialValid","inputs":[{"name":"credentialId","type":"string","internalType":"string"}],"outputs":[{"name":"","type":"bool","internalType":"bool"}],"stateMutability":"view"},{"type":"function","name":"isIssuerVerified","inputs":[{"name":"issuer","type":"address","internalType":"address"}],"outputs":[{"name":"","type":"bool","internalType":"bool"}],"stateMutability":"view"},{"type":"function","name":"issueCredential","inputs":[{"name":"credentialId","type":"string","internalType":"string"},{"name":"credentialHash","type":"bytes32","internalType":"bytes32"},{"name":"holder","type":"address","internalType":"address"},{"name":"expiresAt","type":"uint256","internalType":"uint256"}],"outputs":[],"stateMutability":"nonpayable"},{"type":"function","name":"issuers","inputs":[{"name":"","type":"address","internalType":"address"}],"outputs":[{"name":"name","type":"string","internalType":"string"},{"name":"registered","type":"bool","internalType":"bool"},{"name":"registeredAt","type":"uint256","internalType":"uint256"},{"name":"totalIssued","type":"uint256","internalType":"uint256"},{"name":"totalRevoked","type":"uint256","internalType":"uint256"}],"stateMutability":"view"},{"type":"function","name":"registerIssuer","inputs":[{"name":"name","type":"string","internalType":"string"}],"outputs":[],"stateMutability":"nonpayable"},{"type":"function","name":"revokeCredential","inputs":[{"name":"credentialId","type":"string","internalType":"string"}],"outputs":[],"stateMutability":"nonpayable"},{"type":"function","name":"transferAdmin","inputs":[{"name":"newAdmin","type":"address","internalType":"address"}],"outputs":[],"stateMutability":"nonpayable"},{"type":"function","name":"unverifyIssuer","inputs":[{"name":"issuer","type":"address","internalType":"address"}],"outputs":[],"stateMutability":"nonpayable"},{"type":"function","name":"updateExpiry","inputs":[{"name":"credentialId","type":"string","internalType":"string"},{"name":"newExpiresAt","type":"uint256","internalType":"uint256"}],"outputs":[],"stateMutability":"nonpayable"},{"type":"function","name":"updateIssuerName","inputs":[{"name":"newName","type":"string","internalType":"string"}],"outputs":[],"stateMutability":"nonpayable"},{"type":"function","name":"verifiedIssuers","inputs":[{"name":"","type":"address","internalType":"address"}],"outputs":[{"name":"","type":"bool","internalType":"bool"}],"stateMutability":"view"},{"type":"function","name":"verifyCredential","inputs":[{"name":"credentialId","type":"string","internalType":"string"}],"outputs":[{"name":"valid","type":"bool","internalType":"bool"},{"name":"revoked","type":"bool","internalType":"bool"},{"name":"expired","type":"bool","internalType":"bool"},{"name":"issuer","type":"address","internalType":"address"},{"name":"holder","type":"address","internalType":"address"},{"name":"credentialHash","type":"bytes32","internalType":"bytes32"}],"stateMutability":"nonpayable"},{"type":"function","name":"verifyIssuer","inputs":[{"name":"issuer","type":"address","internalType":"address"}],"outputs":[],"stateMutability":"nonpayable"},{"type":"event","name":"CredentialIssued","inputs":[{"name":"credentialId","type":"string","indexed":true,"internalType":"string"},{"name":"issuer","type":"address","indexed":true,"internalType":"address"},{"name":"holder","type":"address","indexed":true,"internalType":"address"},{"name":"credentialHash","type":"bytes32","indexed":false,"internalType":"bytes32"},{"name":"timestamp","type":"uint256","indexed":false,"internalType":"uint256"}],"anonymous":false},{"type":"event","name":"CredentialRevoked","inputs":[{"name":"credentialId","type":"string","indexed":true,"internalType":"string"},{"name":"issuer","type":"address","indexed":true,"internalType":"address"},{"name":"timestamp","type":"uint256","indexed":false,"internalType":"uint256"}],"anonymous":false},{"type":"event","name":"CredentialVerified","inputs":[{"name":"credentialId","type":"string","indexed":true,"internalType":"string"},{"name":"timestamp","type":"uint256","indexed":false,"internalType":"uint256"}],"anonymous":false},{"type":"event","name":"ExpiryUpdated","inputs":[{"name":"credentialId","type":"string","indexed":true,"internalType":"string"},{"name":"newExpiresAt","type":"uint256","indexed":false,"internalType":"uint256"},{"name":"timestamp","type":"uint256","indexed":false,"internalType":"uint256"}],"anonymous":false},{"type":"event","name":"IssuerRegistered","inputs":[{"name":"issuer","type":"address","indexed":true,"internalType":"address"},{"name":"name","type":"string","indexed":false,"internalType":"string"},{"name":"timestamp","type":"uint256","indexed":false,"internalType":"uint256"}],"anonymous":false},{"type":"event","name":"IssuerVerified","inputs":[{"name":"issuer","type":"address","indexed":true,"internalType":"address"},{"name":"timestamp","type":"uint256","indexed":false,"internalType":"uint256"}],"anonymous":false}],"bytecode":{"object":"0x608060405234801561000f575f80fd5b50600580546001600160a01b031916331790556124f48061002f5f395ff3fe608060405234801561000f575f80fd5b506004361061013d575f3560e01c8063810838b2116100b4578063c994edf311610079578063c994edf314610450578063ce01982014610463578063d8202ffb14610476578063e730e86a14610489578063f851a440146104b1578063fa5699e2146104dc575f80fd5b8063810838b2146102da5780638d184432146102ed5780639c353f191461030d578063bb3670ab14610343578063bf4af9b114610396575f80fd5b80633ed46f7a116101055780633ed46f7a1461024c5780635e9a2d281461026e5780635e9aab701461028157806360c000d4146102a15780636f4581dc146102b457806375829def146102c7575f80fd5b80630c9363c8146101415780630ebe3b49146101565780632f67abf614610169578063382dc2ce146101a957806338a7543e14610228575b5f80fd5b61015461014f366004611d4b565b6104ef565b005b610154610164366004611f06565b610542565b610194610177366004611d4b565b6001600160a01b03165f9081526001602052604090205460ff1690565b60405190151581526020015b60405180910390f35b6101bc6101b7366004612019565b610baa565b60408051825181526020808401516001600160a01b0390811691830191909152838301511691810191909152606080830151908201526080808301519082015260a08083015115159082015260c0808301519082015260e09182015191810191909152610100016101a0565b61023b610236366004611d4b565b610cd0565b6040516101a09594939291906120a0565b61019461025a366004611d4b565b60016020525f908152604090205460ff1681565b61015461027c366004612019565b610d88565b61029461028f366004611d4b565b610f8e565b6040516101a091906120d6565b6101546102af366004611d4b565b6110a3565b6101546102c2366004612019565b61118a565b6101546102d5366004611d4b565b61131b565b6101546102e8366004612019565b6113b5565b6103006102fb366004611d4b565b61148b565b6040516101a09190612127565b61033561031b366004611d4b565b6001600160a01b03165f9081526004602052604090205490565b6040519081526020016101a0565b610356610351366004612019565b611575565b6040805196151587529415156020870152921515938501939093526001600160a01b039081166060850152909116608083015260a082015260c0016101a0565b6104076103a4366004612019565b8051602081830181018051600280835293830192909401919091209290528154600183015491830154600384015460048501546005860154600687015460079097015494966001600160a01b0396871696909416949293919260ff909116919088565b604080519889526001600160a01b0397881660208a0152959096169487019490945260608601929092526080850152151560a084015260c083015260e0820152610100016101a0565b61019461045e366004612019565b6116ae565b610154610471366004612187565b61175d565b610300610484366004611d4b565b6118d0565b610335610497366004611d4b565b6001600160a01b03165f9081526003602052604090205490565b6005546104c4906001600160a01b031681565b6040516001600160a01b0390911681526020016101a0565b6101546104ea3660046121c9565b6119af565b6005546001600160a01b031633146105225760405162461bcd60e51b815260040161051990612224565b60405180910390fd5b6001600160a01b03165f908152600160205260409020805460ff19169055565b335f9081526020819052604090206001015460ff166105735760405162461bcd60e51b815260040161051990612248565b82518451148015610585575081518451145b8015610592575080518451145b6105d65760405162461bcd60e51b8152602060048201526015602482015274082e4e4c2f240d8cadccee8d040dad2e6dac2e8c6d605b1b6044820152606401610519565b5f8451116106155760405162461bcd60e51b815260206004820152600c60248201526b456d7074792061727261797360a01b6044820152606401610519565b6032845111156106595760405162461bcd60e51b815260206004820152600f60248201526e426174636820746f6f206c6172676560881b6044820152606401610519565b5f5b8451811015610b7b575f8582815181106106775761067761227f565b602002602001015151116106cd5760405162461bcd60e51b815260206004820152601d60248201527f43726564656e7469616c2049442063616e6e6f7420626520656d7074790000006044820152606401610519565b5f6001600160a01b031660028683815181106106eb576106eb61227f565b60200260200101516040516107009190612293565b908152604051908190036020019020600101546001600160a01b0316146107695760405162461bcd60e51b815260206004820152601c60248201527f43726564656e7469616c20494420616c726561647920657869737473000000006044820152606401610519565b5f801b84828151811061077e5761077e61227f565b6020026020010151036107cd5760405162461bcd60e51b8152602060048201526017602482015276092dcecc2d8d2c840c6e4cac8cadce8d2c2d840d0c2e6d604b1b6044820152606401610519565b5f6001600160a01b03168382815181106107e9576107e961227f565b60200260200101516001600160a01b0316036108405760405162461bcd60e51b8152602060048201526016602482015275496e76616c696420686f6c646572206164647265737360501b6044820152606401610519565b8181815181106108525761085261227f565b60200260200101515f148061087f5750428282815181106108755761087561227f565b6020026020010151115b61089b5760405162461bcd60e51b8152600401610519906122ae565b6040518061010001604052808583815181106108b9576108b961227f565b60200260200101518152602001336001600160a01b031681526020018483815181106108e7576108e761227f565b60200260200101516001600160a01b031681526020014281526020018383815181106109155761091561227f565b602002602001015181526020015f151581526020015f81526020015f81525060028683815181106109485761094861227f565b602002602001015160405161095d9190612293565b908152604080516020928190038301902083518155918301516001830180546001600160a01b03199081166001600160a01b039384161790915591840151600284018054909316911617905560608201516003808301919091556080830151600483015560a083015160058301805460ff191691151591909117905560c0830151600683015560e09092015160079091015583515f90859084908110610a0557610a0561227f565b60200260200101516001600160a01b03166001600160a01b031681526020019081526020015f20858281518110610a3e57610a3e61227f565b60209081029190910181015182546001810184555f938452919092200190610a669082612365565b50335f9081526004602052604090208551869083908110610a8957610a8961227f565b60209081029190910181015182546001810184555f938452919092200190610ab19082612365565b50828181518110610ac457610ac461227f565b60200260200101516001600160a01b0316336001600160a01b0316868381518110610af157610af161227f565b6020026020010151604051610b069190612293565b60405180910390207fbadeefdb4b9a427269f718ad09b76317ee00faf01a250c0cf6e82bf78c70ac2b878581518110610b4157610b4161227f565b602002602001015142604051610b61929190918252602082015260400190565b60405180910390a480610b7381612435565b91505061065b565b508351335f9081526020819052604081206003018054909190610b9f90849061244d565b909155505050505050565b60408051610100810182525f80825260208201819052918101829052606081018290526080810182905260a0810182905260c0810182905260e0810191909152815f6001600160a01b0316600282604051610c059190612293565b908152604051908190036020019020600101546001600160a01b031603610c3e5760405162461bcd60e51b815260040161051990612466565b600283604051610c4e9190612293565b908152604080519182900360209081018320610100840183528054845260018101546001600160a01b03908116928501929092526002810154909116918301919091526003810154606083015260048101546080830152600581015460ff16151560a0830152600681015460c08301526007015460e082015291505b50919050565b5f60208190529081526040902080548190610cea906122e5565b80601f0160208091040260200160405190810160405280929190818152602001828054610d16906122e5565b8015610d615780601f10610d3857610100808354040283529160200191610d61565b820191905f5260205f20905b815481529060010190602001808311610d4457829003601f168201915b50505050600183015460028401546003850154600490950154939460ff9092169390925085565b805f6001600160a01b0316600282604051610da39190612293565b908152604051908190036020019020600101546001600160a01b031603610ddc5760405162461bcd60e51b815260040161051990612466565b81336001600160a01b0316600282604051610df79190612293565b908152604051908190036020019020600101546001600160a01b031614610e5c5760405162461bcd60e51b81526020600482015260196024820152782737ba103a34329031b932b232b73a34b0b61034b9b9bab2b960391b6044820152606401610519565b600283604051610e6c9190612293565b9081526040519081900360200190206005015460ff1615610ec15760405162461bcd60e51b815260206004820152600f60248201526e105b1c9958591e481c995d9bdad959608a1b6044820152606401610519565b6001600284604051610ed39190612293565b908152604051908190036020018120600501805492151560ff19909316929092179091554290600290610f07908690612293565b908152604080516020928190038301902060060192909255335f90815290819052908120600401805491610f3a83612435565b90915550506040513390610f4f908590612293565b604051908190038120428252907f9f9819d32ae627dacfe9bddc3fcee5b251647014bc38529c59325a49747c4f8f9060200160405180910390a3505050565b610fbe6040518060a00160405280606081526020015f151581526020015f81526020015f81526020015f81525090565b6001600160a01b0382165f9081526020819052604090819020815160a08101909252805482908290610fef906122e5565b80601f016020809104026020016040519081016040528092919081815260200182805461101b906122e5565b80156110665780601f1061103d57610100808354040283529160200191611066565b820191905f5260205f20905b81548152906001019060200180831161104957829003601f168201915b5050509183525050600182015460ff1615156020820152600282015460408201526003820154606082015260049091015460809091015292915050565b6005546001600160a01b031633146110cd5760405162461bcd60e51b815260040161051990612224565b6001600160a01b0381165f9081526020819052604090206001015460ff1661112f5760405162461bcd60e51b8152602060048201526015602482015274125cdcdd595c881b9bdd081c9959da5cdd195c9959605a1b6044820152606401610519565b6001600160a01b0381165f81815260016020818152604092839020805460ff191690921790915590514281527fcf2d5149e3e281dc713efa90d9570fff2005763570178d0219f47a241ccde18291015b60405180910390a250565b335f9081526020819052604090206001015460ff16156111e15760405162461bcd60e51b8152602060048201526012602482015271105b1c9958591e481c9959da5cdd195c995960721b6044820152606401610519565b5f8151116112285760405162461bcd60e51b81526020600482015260146024820152734e616d652063616e6e6f7420626520656d70747960601b6044820152606401610519565b60648151111561126a5760405162461bcd60e51b815260206004820152600d60248201526c4e616d6520746f6f206c6f6e6760981b6044820152606401610519565b6040805160a081018252828152600160208083019190915242828401525f60608301819052608083018190523381529081905291909120815181906112af9082612365565b50602082015160018201805460ff19169115159190911790556040808301516002830155606083015160038301556080909201516004909101555133907fedfcb15df1f43eb469a84558fa52a8868c69c2e6fd8401734c111c1cb68e05f29061117f908490429061249d565b6005546001600160a01b031633146113455760405162461bcd60e51b815260040161051990612224565b6001600160a01b0381166113935760405162461bcd60e51b8152602060048201526015602482015274496e76616c69642061646d696e206164647265737360581b6044820152606401610519565b600580546001600160a01b0319166001600160a01b0392909216919091179055565b335f9081526020819052604090206001015460ff166113e65760405162461bcd60e51b815260040161051990612248565b5f81511161142d5760405162461bcd60e51b81526020600482015260146024820152734e616d652063616e6e6f7420626520656d70747960601b6044820152606401610519565b60648151111561146f5760405162461bcd60e51b815260206004820152600d60248201526c4e616d6520746f6f206c6f6e6760981b6044820152606401610519565b335f9081526020819052604090206114878282612365565b5050565b6001600160a01b0381165f908152600360209081526040808320805482518185028101850190935280835260609492939192909184015b8282101561156a578382905f5260205f200180546114df906122e5565b80601f016020809104026020016040519081016040528092919081815260200182805461150b906122e5565b80156115565780601f1061152d57610100808354040283529160200191611556565b820191905f5260205f20905b81548152906001019060200180831161153957829003601f168201915b5050505050815260200190600101906114c2565b505050509050919050565b5f805f805f80865f6001600160a01b03166002826040516115969190612293565b908152604051908190036020019020600101546001600160a01b0316036115cf5760405162461bcd60e51b815260040161051990612466565b5f6002896040516115e09190612293565b9081526040519081900360200190206005810154600482015460ff9091169850909150158015906116145750428160040154105b955086158015611622575085155b600182015460028301548354600785018054949c506001600160a01b03938416995092909116965094505f61165683612435565b9190505550886040516116699190612293565b604051908190038120428252907f03baabae921d5d755b3dc491e866dbf8bd7b0768f7a62dde5fcdbc3fcf7c125c9060200160405180910390a2505091939550919395565b5f815f6001600160a01b03166002826040516116ca9190612293565b908152604051908190036020019020600101546001600160a01b0316036117035760405162461bcd60e51b815260040161051990612466565b5f6002846040516117149190612293565b9081526040519081900360200190206005810154600482015491925060ff1615905f901580611747575042836004015410155b90508180156117535750805b9695505050505050565b815f6001600160a01b03166002826040516117789190612293565b908152604051908190036020019020600101546001600160a01b0316036117b15760405162461bcd60e51b815260040161051990612466565b82336001600160a01b03166002826040516117cc9190612293565b908152604051908190036020019020600101546001600160a01b0316146118315760405162461bcd60e51b81526020600482015260196024820152782737ba103a34329031b932b232b73a34b0b61034b9b9bab2b960391b6044820152606401610519565b82158061183d57504283115b6118595760405162461bcd60e51b8152600401610519906122ae565b8260028560405161186a9190612293565b9081526040519081900360200181206004019190915561188b908590612293565b60408051918290038220858352426020840152917fecf0cdb07f63456771d798e9d884e5aca78af8264760a2fc688eb3c66d5c3e5f910160405180910390a250505050565b6001600160a01b0381165f908152600460209081526040808320805482518185028101850190935280835260609492939192909184015b8282101561156a578382905f5260205f20018054611924906122e5565b80601f0160208091040260200160405190810160405280929190818152602001828054611950906122e5565b801561199b5780601f106119725761010080835404028352916020019161199b565b820191905f5260205f20905b81548152906001019060200180831161197e57829003601f168201915b505050505081526020019060010190611907565b335f9081526020819052604090206001015460ff166119e05760405162461bcd60e51b815260040161051990612248565b5f845111611a305760405162461bcd60e51b815260206004820152601d60248201527f43726564656e7469616c2049442063616e6e6f7420626520656d7074790000006044820152606401610519565b5f6001600160a01b0316600285604051611a4a9190612293565b908152604051908190036020019020600101546001600160a01b031614611ab35760405162461bcd60e51b815260206004820152601c60248201527f43726564656e7469616c20494420616c726561647920657869737473000000006044820152606401610519565b82611afa5760405162461bcd60e51b8152602060048201526017602482015276092dcecc2d8d2c840c6e4cac8cadce8d2c2d840d0c2e6d604b1b6044820152606401610519565b6001600160a01b038216611b495760405162461bcd60e51b8152602060048201526016602482015275496e76616c696420686f6c646572206164647265737360501b6044820152606401610519565b801580611b5557504281115b611b715760405162461bcd60e51b8152600401610519906122ae565b60408051610100810182528481523360208201526001600160a01b03841681830152426060820152608081018390525f60a0820181905260c0820181905260e08201529051600290611bc4908790612293565b90815260408051602092819003830190208351815583830151600180830180546001600160a01b03199081166001600160a01b03948516179091558685015160028501805490921690841617905560608601516003808501919091556080870151600485015560a087015160058501805460ff191691151591909117905560c0870151600685015560e09096015160079093019290925586165f908152938352908320805491820181558352912001611c7d8582612365565b50335f90815260046020908152604082208054600181018255908352912001611ca68582612365565b50335f908152602081905260408120600301805491611cc483612435565b9190505550816001600160a01b0316336001600160a01b031685604051611ceb9190612293565b60408051918290038220878352426020840152917fbadeefdb4b9a427269f718ad09b76317ee00faf01a250c0cf6e82bf78c70ac2b910160405180910390a450505050565b80356001600160a01b0381168114611d46575f80fd5b919050565b5f60208284031215611d5b575f80fd5b611d6482611d30565b9392505050565b634e487b7160e01b5f52604160045260245ffd5b604051601f8201601f1916810167ffffffffffffffff81118282101715611da857611da8611d6b565b604052919050565b5f67ffffffffffffffff821115611dc957611dc9611d6b565b5060051b60200190565b5f82601f830112611de2575f80fd5b813567ffffffffffffffff811115611dfc57611dfc611d6b565b611e0f601f8201601f1916602001611d7f565b818152846020838601011115611e23575f80fd5b816020850160208301375f918101602001919091529392505050565b5f82601f830112611e4e575f80fd5b81356020611e63611e5e83611db0565b611d7f565b82815260059290921b84018101918181019086841115611e81575f80fd5b8286015b84811015611e9c5780358352918301918301611e85565b509695505050505050565b5f82601f830112611eb6575f80fd5b81356020611ec6611e5e83611db0565b82815260059290921b84018101918181019086841115611ee4575f80fd5b8286015b84811015611e9c57611ef981611d30565b8352918301918301611ee8565b5f805f8060808587031215611f19575f80fd5b843567ffffffffffffffff80821115611f30575f80fd5b818701915087601f830112611f43575f80fd5b81356020611f53611e5e83611db0565b82815260059290921b8401810191818101908b841115611f71575f80fd5b8286015b84811015611fa857803586811115611f8c575f8081fd5b611f9a8e86838b0101611dd3565b845250918301918301611f75565b5098505088013592505080821115611fbe575f80fd5b611fca88838901611e3f565b94506040870135915080821115611fdf575f80fd5b611feb88838901611ea7565b93506060870135915080821115612000575f80fd5b5061200d87828801611e3f565b91505092959194509250565b5f60208284031215612029575f80fd5b813567ffffffffffffffff81111561203f575f80fd5b61204b84828501611dd3565b949350505050565b5f5b8381101561206d578181015183820152602001612055565b50505f910152565b5f815180845261208c816020860160208601612053565b601f01601f19169290920160200192915050565b60a081525f6120b260a0830188612075565b95151560208301525060408101939093526060830191909152608090910152919050565b602081525f825160a060208401526120f160c0840182612075565b90506020840151151560408401526040840151606084015260608401516080840152608084015160a08401528091505092915050565b5f602080830181845280855180835260408601915060408160051b87010192508387015f5b8281101561217a57603f19888603018452612168858351612075565b9450928501929085019060010161214c565b5092979650505050505050565b5f8060408385031215612198575f80fd5b823567ffffffffffffffff8111156121ae575f80fd5b6121ba85828601611dd3565b95602094909401359450505050565b5f805f80608085870312156121dc575f80fd5b843567ffffffffffffffff8111156121f2575f80fd5b6121fe87828801611dd3565b9450506020850135925061221460408601611d30565b9396929550929360600135925050565b6020808252600a908201526927b7363c9030b236b4b760b11b604082015260600190565b60208082526017908201527f4e6f742061207265676973746572656420697373756572000000000000000000604082015260600190565b634e487b7160e01b5f52603260045260245ffd5b5f82516122a4818460208701612053565b9190910192915050565b6020808252601d908201527f457870697279206d75737420626520696e20667574757265206f722030000000604082015260600190565b600181811c908216806122f957607f821691505b602082108103610cca57634e487b7160e01b5f52602260045260245ffd5b601f821115612360575f81815260208120601f850160051c8101602086101561233d5750805b601f850160051c820191505b8181101561235c57828155600101612349565b5050505b505050565b815167ffffffffffffffff81111561237f5761237f611d6b565b6123938161238d84546122e5565b84612317565b602080601f8311600181146123c6575f84156123af5750858301515b5f19600386901b1c1916600185901b17855561235c565b5f85815260208120601f198616915b828110156123f4578886015182559484019460019091019084016123d5565b508582101561241157878501515f19600388901b60f8161c191681555b5050505050600190811b01905550565b634e487b7160e01b5f52601160045260245ffd5b5f6001820161244657612446612421565b5060010190565b8082018082111561246057612460612421565b92915050565b60208082526019908201527f43726564656e7469616c20646f6573206e6f7420657869737400000000000000604082015260600190565b604081525f6124af6040830185612075565b9050826020830152939250505056fea26469706673582212204a4743fa3c718f69be0c94722215763ac972542048da58f258191a7ebbd2bb3064736f6c63430008140033","linkReferences":{}},"methodIdentifiers":{"admin()":"f851a440","batchIssueCredentials(string[],bytes32[],address[],uint256[])":"0ebe3b49","credentials(string)":"bf4af9b1","getCredentialRecord(string)":"382dc2ce","getHolderCredentialCount(address)":"e730e86a","getHolderCredentials(address)":"8d184432","getIssuerCredentialCount(address)":"9c353f19","getIssuerCredentials(address)":"d8202ffb","getIssuerInfo(address)":"5e9aab70","isCredentialValid(string)":"c994edf3","isIssuerVerified(address)":"2f67abf6","issueCredential(string,bytes32,address,uint256)":"fa5699e2","issuers(address)":"38a7543e","registerIssuer(string)":"6f4581dc","revokeCredential(string)":"5e9a2d28","transferAdmin(address)":"75829def","unverifyIssuer(address)":"0c9363c8","updateExpiry(string,uint256)":"ce019820","updateIssuerName(string)":"810838b2","verifiedIssuers(address)":"3ed46f7a","verifyCredential(string)":"bb3670ab","verifyIssuer(address)":"60c000d4"},"id":19}